:030000000201A258
:0C01A200787FE4F6D8FD7581150201E9B4
:1003A4007580FFC292D291D295AF80C295EF20E7BB
:0103B400F652
:0103B5002225
:1003C800AE071203A4C292C2918E80D295C2952222
:1003D800AE071203A4D292C2918E80D295C2952202
:1003B600ED7004AC078004EF2440FCEC4480FF029F
:0203C60003C86A
:0803F5001203B6AF030203D8A6
:10034A008B108A1189121203B6AB10AA11A91212C4
:10035A00000360130512E5127002051114F9120068
:08036A0003FF1203D880E22218
:0503FD007F010203C8AE
:100390007F381203C87F0C1203C87F061203C87F80
:0403A000010203C88B
:0C03E800020E00000608000000000000EB
:10022E00C2A7C2A61203907F807E251202CD209017
:10023E00223090FD050FE50F7002050EC39463E5A5
:10024E000E648094804006750E00750F631202F7DF
:10025E001203212093D83093FDE50F150F70021570
:10026E000ED3E50F9400E50E648094805005E4F5FE
:0B027E000EF50F1202F712032180B3EF
:1002CD00D2AF75985053890F438920AB07AA06E426
:1002DD00F9F87F807E70FDFC120289EFF404F58D34
:0A02ED00858D8BC2ABD2ACD28E22FD
:1002F700750853750959AE0EAF0F7C007D0A1200C1
:1003070049EF2430F50AAE0EAF0F7C007D0A1200CC
:0A03170049ED2430F50B750C482267
:10037200D3EF9400EE940040147D6E7C00ED1D706E
:0D038200011CED4C70F7EF1F70E61E80E3CC
:01038F00224B
:060321007B007A00790860
:060327008B138A148915F6
:10032D00E4FFAB13AA14A9158F8275830012001C6C
:0C033D00600AF5990F3099FDC29980E626
:010349002291
:1001AE0002022EE493A3F8E493A34003F68001F237
:1001BE0008DFF48029E493A3F85407240CC8C33352
:1001CE00C4540F4420C8834004F456800146F6DF21
:1001DE00E4800B01020408102040809003E8E47EC6
:1001EE00019360BCA3FF543F30E509541FFEE49316
:1001FE00A360010ECF54C025E060A840B8E493A3DD
:10020E00FAE493A3F8E493A3C8C582C8CAC583CA07
:10021E00F0A3C8C582C8CAC583CADFE9DEE780BEBF
:0103F4000008
:10000300BB010689828A83E0225002E722BBFE02FB
:09001300E32289828A83E493222E
:10001C00BB010CE58229F582E5833AF583E0225099
:10002C0006E92582F8E622BBFE06E92582F8E222E3
:0D003C00E58229F582E5833AF583E49322FD
:10004900C2D5EC30E709B2D5E4C39DFDE49CFCEED2
:1000590030E715B2D5E4C39FFFE49EFE12007FC3CB
:10006900E49DFDE49CFC800312007F30D507C3E4C6
:060079009FFFE49EFE2241
:10028900C2D5E830E70FB2D5E4C39BFBE49AFAE4A0
:1002990099F9E498F8EC30E717B2D51202BF1201C8
:1002A90010E4C39BFBE49AFAE499F9E498F8800313
:1002B90012011030D50DE4C39FFFE49EFEE49DFDBD
:0402C900E49CFC2293
:10007F00BC000BBE0029EF8DF084FFADF022E4CC65
:10008F00F875F008EF2FFFEE33FEEC33FCEE9DEC2E
:10009F00984005FCEE9DFE0FD5F0E9E4CEFD22ED74
:1000AF00F8F5F0EE8420D21CFEADF075F008EF2FBE
:1000BF00FFED33FD4007985006D5F0F222C398FDAF
:0500CF000FD5F0EA224C
:1000D40075F008758200EF2FFFEE33FECD33CDCCE3
:1000E40033CCC58233C5829BED9AEC99E582984066
:1000F4000CF582EE9BFEED9AFDEC99FC0FD5F0D643
:10010400E4CEFBE4CDFAE4CCF9A88222B800C1B96C
:100114000059BA002DEC8BF084CFCECDFCE5F0CBAA
:10012400F97818EF2FFFEE33FEED33FDEC33FCEBE3
:1001340033FB10D703994004EB99FB0FD8E5E4F99E
:10014400FA227818EF2FFFEE33FEED33FDEC33FC8B
:10015400C933C910D7059BE99A4007EC9BFCE99A7F
:10016400F90FD8E0E4C9FAE4CCFB2275F010EF2FC4
:10017400FFEE33FEED33FDCC33CCC833C810D707C4
:100184009BEC9AE899400AED9BFDEC9AFCE899F8FF
:0E0194000FD5F0DAE4CDFBE4CCFAE4C8F92292
:00000001FF
