:1002F90057656C636F6D65205553452100535953FC
:1003090054454D2052756E6E696E67210054653AE9
:1003190020300068753A20300025524800696C6C1D
:0B032900753A2020202030006C780086
:1003B500C100C1010D0A000000000000000000009E
:0A03C500000000011700020800000C
:10033400C2A7C2A61203D01201997F807E251203A0
:10034400633000FDC200E50AB453F6E50BB459F17D
:0F035400E50CB459ECE516B448E712026480E2F8
:10036300D2AF75985053890F438920AB07AA06E48F
:10037300F9F87F807E70FDFC1202B5EFF404F58D71
:0A038300858D8BC2ABD2ACD28E2266
:100199007BFF7A0279F9E4FD7F0212038D7BFF7AF6
:1001A9000379067D017F0112038D7FDC7E05120034
:1001B900031204307BFF7A037916E4FDFF12038DE5
:1001C9007BDFE4FD7F051204287B43E4FD7F0612F3
:1001D90004287BFF7A03791CE4FD7F0812038D7BD9
:1001E900FF7A037922E4FD7F0D12038D7BFF7A03E9
:1001F90079267D01E4FF12038D7BFF7A0379317D36
:06020900017F0B02038DD2
:10026400AB0DE4FD7F03120428AB0EE4FD7F041202
:100274000428AB0FE4FD7F0B120428AB10E4FD7FD0
:100284000C120428AB117D017F05120428AB127DEA
:10029400017F06120428AB137D017F07120428ABEB
:1002A400147D017F08120428AB157D017F09020427
:0102B4002821
:10000300D3EF9400EE940040147D6E7C00ED1D70E0
:0D001300011CED4C70F7EF1F70E61E80E33E
:0100200022BD
:0300230002020FC7
:09020F00C0E0C0D075D000C000B1
:10021800309842C298859917E517B45311E50945F6
:1002280008700B740A2509F8A617D2018027300137
:10023800240509E50970020508240AF8A617C3E58C
:1002480009940CE50864809480400A7508007509D3
:0502580000C201D2000C
:07025D00D000D0D0D0E03248
:1003E4007580FFC290D291D292AF80C292EF20E783
:0103F400F612
:0103F50022E5
:10040800AE071203E4C290C2918E80D292C29222A9
:10041800AE071203E4D290C2918E80D292C2922289
:1003F600ED7004AC078004EF2440FCEC4480FF025F
:020406000408E8
:080428001203F6AF03020418F1
:10038D008B188A19891A1203F6AB18AA19A91A1211
:10039D0000266013051AE51A7002051914F91200EA
:0803AD0026FF12041880E22271
:050430007F0102040839
:1003D0007F381204087F0C1204087F061204087F7D
:0403E000010204080A
:0300000002010DED
:0C010D00787FE4F6D8FD758120020154D3
:10011900020334E493A3F8E493A34003F68001F2C5
:1001290008DFF48029E493A3F85407240CC8C333E7
:10013900C4540F4420C8834004F456800146F6DFB6
:10014900E4800B01020408102040809003B5E47E8E
:10015900019360BCA3FF543F30E509541FFEE493AB
:10016900A360010ECF54C025E060A840B8E493A372
:10017900FAE493A3F8E493A3C8C582C8CAC583CA9D
:10018900F0A3C8C582C8CAC583CADFE9DEE780BE55
:0103CF00002D
:10002600BB010689828A83E0225002E722BBFE02D8
:09003600E32289828A83E493220B
:1002B500C2D5E830E70FB2D5E4C39BFBE49AFAE474
:1002C50099F9E498F8EC30E717B2D51202EB120071
:1002D5007BE4C39BFBE49AFAE499F9E498F880037C
:1002E50012007B30D50DE4C39FFFE49EFEE49DFD27
:0402F500E49CFC2267
:10003F0075F008758200EF2FFFEE33FECD33CDCC78
:10004F0033CCC58233C5829BED9AEC99E5829840FB
:10005F000CF582EE9BFEED9AFDEC99FC0FD5F0D6D8
:10006F00E4CEFBE4CDFAE4CCF9A88222B800C1B902
:10007F000059BA002DEC8BF084CFCECDFCE5F0CB40
:10008F00F97818EF2FFFEE33FEED33FDEC33FCEB79
:10009F0033FB10D703994004EB99FB0FD8E5E4F934
:1000AF00FA227818EF2FFFEE33FEED33FDEC33FC21
:1000BF00C933C910D7059BE99A4007EC9BFCE99A15
:1000CF00F90FD8E0E4C9FAE4CCFB2275F010EF2F5A
:1000DF00FFEE33FEED33FDCC33CCC833C810D7075A
:1000EF009BEC9AE899400AED9BFDEC9AFCE899F895
:0E00FF000FD5F0DAE4CDFBE4CCFAE4C8F92228
:00000001FF
