:1004A30057656C636F6D6520555345210053595350
:1004B30054454D2052756E6E696E67210053595332
:1004C30054454D2052756E6E696E670054653A202F
:0D04D300300068753A203000000000000085
:10055600C100C101080A00000000000000000112ED
:0B056600000113000114000208000057
:1002030078157C007D007BFF7A0479DB7E007F0517
:100213001200F6E4F51AF51BC2A7C2A61205721264
:1002230003927F807E251204E030007BC200E50A42
:10023300B453F6E50BB459F1E50CB459ECE511B43C
:1002430048E7120532E50D642D6022E50E642D604A
:100253001CE50F642D6016E510642D6010E50D2478
:10026300D075F00AA4FFE50E24D02FF513E513C3D0
:1002730094144018E513D394195011E4F513C29361
:10028300C2957F32FE120003D295D293E513D39425
:10029300194096E4F513C293C2947F907E01120035
:1002A30003D294D2938082E51AD394045011A2A569
:1002B300E433FF7415251AF8A607051A02022CE485
:1002C300F51AF51BE51BC39405400302022C7415B4
:1002D300251BF8E66401600302022C7B207D017F6D
:1002E300031205CA7B307D017F041205CA7B207D82
:1002F300017F0B1205CA7B307D017F0C1205CA05F5
:030303001B80C19B
:1004E000D2AF75985053890F438920AB07AA06E411
:1004F000F9F87F807E70FDFC12045FEFF404F58D47
:0A050000858D8BC2ABD2ACD28E22E7
:100392007BFF7A0479A3E4FD7F0212050A7BFF7AD0
:1003A2000479B07D017F0112050A7FDC7E0512000F
:1003B200031205D27BFF7A0479C0E4FD7F011205A6
:1003C2000A7BFF7A0479CF7D01E4FF12050A7BDF05
:1003D2007D017F051205CA7B437D017F061205CA96
:1003E2007BFF7A0479D57D017F0812050A7B257D82
:1003F200017F0D1205CA7B527D017F0E1205CA7B59
:08040200487D017F0F0205CACD
:10053200AB0D7D017F031205CAAB0E7D017F041254
:1005420005CAAB0F7D017F0B1205CAAB107D017F7F
:040552000C0205CAC8
:10000300D3EF9400EE940040147D6E7C00ED1D70E0
:0D001300011CED4C70F7EF1F70E61E80E33E
:0100200022BD
:0300230002040ACA
:09040A00C0E0C0D075D000C000B4
:10041300309842C298859912E512B45311E5094503
:1004230008700B740A2509F8A612D201802730013F
:10043300240509E50970020508240AF8A612C3E594
:10044300099407E50864809480400A7508007509DB
:0504530000C201D2000F
:07045800D000D0D0D0E0324B
:100586007580FFC290D291D292AF80C292EF20E7DF
:01059600F66E
:010597002241
:1005AA00AE07120586C290C2918E80D292C2922262
:1005BA00AE07120586D290C2918E80D292C2922242
:10059800ED7004AC078004EF2440FCEC4480FF02BB
:0205A80005AAA2
:0805CA00120598AF030205BA07
:10050A008B1C8A1D891E120598AB1CAA1DA91E12D6
:10051A00011C6013051EE51E7002051D14F9120167
:08052A001CFF1205BA80E22259
:0505D2007F010205AAF3
:100572007F381205AA7F0C1205AA7F061205AA7FF0
:04058200010205AAC3
:03000000020306F2
:0C030600787FE4F6D8FD75812002034DDD
:10031200020203E493A3F8E493A34003F68001F2FC
:1003220008DFF48029E493A3F85407240CC8C333EC
:10033200C4540F4420C8834004F456800146F6DFBB
:10034200E4800B0102040810204080900556E47EF0
:10035200019360BCA3FF543F30E509541FFEE493B0
:10036200A360010ECF54C025E060A840B8E493A377
:10037200FAE493A3F8E493A3C8C582C8CAC583CAA2
:10038200F0A3C8C582C8CAC583CADFE9DEE780BE5A
:010571000089
:10002600E709F608DFFA8046E709F208DFFA803EBC
:1000360088828C83E709F0A3DFFA8032E309F608A9
:10004600DFFA8078E309F208DFFA807088828C8311
:10005600E309F0A3DFFA806489828A83E0A3F608C5
:10006600DFFA805889828A83E0A3F208DFFA804C9F
:1000760080D280FA80C680D4806980F28033801076
:1000860080A680EA809A80A880DA80E280CA8033DF
:1000960089828A83ECFAE493A3C8C582C8CCC58357
:1000A600CCF0A3C8C582C8CCC583CCDFE9DEE78027
:1000B6000D89828A83E493A3F608DFF9ECFAA9F0A6
:1000C600EDFB2289828A83ECFAE0A3C8C582C8CCFC
:1000D600C583CCF0A3C8C582C8CCC583CCDFEADE15
:1000E600E880DB89828A83E493A3F208DFF980CC77
:1000F60088F0EF60010E4E60C388F0ED2402B40470
:100106000050B9F582EB2402B4040050AF23234516
:06011600822390007673C5
:10011C00BB010689828A83E0225002E722BBFE02E1
:09012C00E32289828A83E4932214
:10045F00C2D5E830E70FB2D5E4C39BFBE49AFAE4C8
:10046F0099F9E498F8EC30E717B2D5120495120118
:10047F0071E4C39BFBE49AFAE499F9E498F88003DA
:10048F0012017130D50DE4C39FFFE49EFEE49DFD84
:04049F00E49CFC22BB
:1001350075F008758200EF2FFFEE33FECD33CDCC81
:1001450033CCC58233C5829BED9AEC99E582984004
:100155000CF582EE9BFEED9AFDEC99FC0FD5F0D6E1
:10016500E4CEFBE4CDFAE4CCF9A88222B800C1B90B
:100175000059BA002DEC8BF084CFCECDFCE5F0CB49
:10018500F97818EF2FFFEE33FEED33FDEC33FCEB82
:1001950033FB10D703994004EB99FB0FD8E5E4F93D
:1001A500FA227818EF2FFFEE33FEED33FDEC33FC2A
:1001B500C933C910D7059BE99A4007EC9BFCE99A1E
:1001C500F90FD8E0E4C9FAE4CCFB2275F010EF2F63
:1001D500FFEE33FEED33FDCC33CCC833C810D70763
:1001E5009BEC9AE899400AED9BFDEC9AFCE899F89E
:0E01F5000FD5F0DAE4CDFBE4CCFAE4C8F92231
:00000001FF
