:030000000201B545
:0C01B500787FE4F6D8FD7581150201FC8E
:1003CC007580FFC290D291D295AF80C295EF20E795
:0103DC00F62A
:0103DD0022FD
:10041200AE071203CCC290C2918E80D295C29522B1
:10042200AE071203CCD290C2918E80D295C2952291
:1003DE00ED7004AC078004EF2440FCEC4480FF0277
:0203EE000412F7
:080432001203DEAF03020422F5
:10034F008B108A1189121203DEAB10AA11A9121297
:10035F00001660130512E5127002051114F9120050
:08036F0016FF12042280E222B5
:05043A007F0102041225
:1003B8007F381204127F0C1204127F061204127F77
:0403C8000102041218
:0C000600020E00000608000000000000D0
:100241001203B87F807E251202FB20A71C050FE553
:100251000F7002050EC39463E50E6480948040061E
:10026100750E00750F6330A7FD20A61DE50F150F54
:100271007002150ED3E50F9400E50E648094805052
:1002810005E4F50EF50F30A6FDAE0EAF0F7C007D37
:100291000A12005CEF2430FBE4FDFF120432AE0EC3
:1002A100AF0F7C007D0A12005CED2430FBE4FD7F82
:0602B100011204328094EA
:1002FB00D2AF75985053890F438920AB07AA06E4F8
:10030B00F9F87F807E70FDFC1202B7EFF404F58DD7
:0A031B00858D8BC2ABD2ACD28E22CE
:10032500750853750959AE0EAF0F7C007D0A120092
:100335005CEF2430F50AAE0EAF0F7C007D0A12008B
:0A0345005CED2430F50B750C482226
:030003000203F005
:1003F000C0E0C2A8050FE50F7002050ED2A8D0E03C
:0104000032C9
:03001300020401E3
:10040100C0E0C2AAE50F150F7002150ED2AAD0E006
:0104110032B8
:10039A00D3EF9400EE940040147D6E7C00ED1D7046
:0D03AA00011CED4C70F7EF1F70E61E80E3A4
:0103B7002223
:060377008B138A148915A6
:10037D00E4FFAB13AA14A9158F8275830012002F09
:0C038D00600AF5990F3099FDC29980E6D6
:010399002241
:1001C100020241E493A3F8E493A34003F68001F211
:1001D10008DFF48029E493A3F85407240CC8C3333F
:1001E100C4540F4420C8834004F456800146F6DF0E
:1001F100E4800B0102040810204080900006E47E98
:10020100019360BCA3FF543F30E509541FFEE49302
:10021100A360010ECF54C025E060A840B8E493A3C9
:10022100FAE493A3F8E493A3C8C582C8CAC583CAF4
:10023100F0A3C8C582C8CAC583CADFE9DEE780BEAC
:0100120000ED
:10001600BB010689828A83E0225002E722BBFE02E8
:09002600E32289828A83E493221B
:10002F00BB010CE58229F582E5833AF583E0225086
:10003F0006E92582F8E622BBFE06E92582F8E222D0
:0D004F00E58229F582E5833AF583E49322EA
:10005C00C2D5EC30E709B2D5E4C39DFDE49CFCEEBF
:10006C0030E715B2D5E4C39FFFE49EFE120092C3A5
:10007C00E49DFDE49CFC800312009230D507C3E4A0
:06008C009FFFE49EFE222E
:1002B700C2D5E830E70FB2D5E4C39BFBE49AFAE472
:1002C70099F9E498F8EC30E717B2D51202ED12016C
:1002D70023E4C39BFBE49AFAE499F9E498F88003D2
:1002E70012012330D50DE4C39FFFE49EFEE49DFD7C
:0402F700E49CFC2265
:10009200BC000BBE0029EF8DF084FFADF022E4CC52
:1000A200F875F008EF2FFFEE33FEEC33FCEE9DEC1B
:1000B200984005FCEE9DFE0FD5F0E9E4CEFD22ED61
:1000C200F8F5F0EE8420D21CFEADF075F008EF2FAB
:1000D200FFED33FD4007985006D5F0F222C398FD9C
:0500E2000FD5F0EA2239
:1000E70075F008758200EF2FFFEE33FECD33CDCCD0
:1000F70033CCC58233C5829BED9AEC99E582984053
:100107000CF582EE9BFEED9AFDEC99FC0FD5F0D62F
:10011700E4CEFBE4CDFAE4CCF9A88222B800C1B959
:100127000059BA002DEC8BF084CFCECDFCE5F0CB97
:10013700F97818EF2FFFEE33FEED33FDEC33FCEBD0
:1001470033FB10D703994004EB99FB0FD8E5E4F98B
:10015700FA227818EF2FFFEE33FEED33FDEC33FC78
:10016700C933C910D7059BE99A4007EC9BFCE99A6C
:10017700F90FD8E0E4C9FAE4CCFB2275F010EF2FB1
:10018700FFEE33FEED33FDCC33CCC833C810D707B1
:100197009BEC9AE899400AED9BFDEC9AFCE899F8EC
:0E01A7000FD5F0DAE4CDFBE4CCFAE4C8F9227F
:00000001FF
