:100707002057656C636F6D6520546F2055736520A6
:1007170000456C656374726F6E6963205363616C27
:100727006500546865205765696768743A2020201A
:10073700202000202020202020202020302E303094
:0B074700306B67002D2D2E2D2D2D0096
:10087600C100C101041500000000040F00000000C3
:10088600041900000000020D000001090001080023
:1006BC001208ED1209031209177BFF7A077907E478
:1006CC00FDFF1208027BFF7A0779187D01E4FF1207
:1006DC0008021205A47BFF7A077929E4FDFF1208B2
:1006EC00027BFF7A07793A7D01E4FF1208023000A1
:0B06FC0005C2001204E11202EB80F3C3
:10091700D2AF53893C4389B0758C3C758AB0D2A954
:03092700D28C224D
:1007D3007F007E2012093D751300850B14AD147F35
:1007E300007E20120897E50AF514751300AD147FF7
:0F07F300017E20120897AD0C7F607E20020897D0
:10082A007F017E201208D3750A008F0B7F007E207D
:10083A001208D3EFFDE50BF50AEDF50B7F607E207C
:06084A001208D38F0C22FE
:1008ED0012082AE50C6401600C750A0D750BAC75C8
:0608FD000C011207D322DA
:1003F900E47B107A27F9F8AF1CAE1BAD1AAC1912C1
:100409000752EC4D4E4F70047B208016E47B107A26
:1004190027F9F8AF1CAE1BAD1AAC19120752EF241D
:1004290030FB7D017F08120003E47B107A27F9F87D
:10043900AF1CAE1BAD1AAC19120752AC00AD01AE20
:1004490002AF03E47BE87A03F9F8120752EF24308C
:10045900FB7D017F091200037B2E7D017F0A1200BB
:1004690003E47BE87A03F9F8AF1CAE1BAD1AAC19AB
:10047900120752AC00AD01AE02AF03E47B64FAF996
:10048900F8120752EF2430FB7D017F0B120003E4C1
:100499007B64FAF9F8AF1CAE1BAD1AAC19120752FE
:1004A900AC00AD01AE02AF03E47B0AFAF9F812071A
:1004B90052EF2430FB7D017F0C120003E47B0AFA22
:1004C900F9F8AF1CAE1BAD1AAC19120752EB243068
:0804D900FB7D017F0D02000311
:1005A4001207968F188E178D168C15E4F51DD297A9
:1005B400C2B57F647E00120856D2B57F647E0012F5
:1005C4000856051DE51DC3940A40E31207968F12D1
:1005D4008E118D108C0FAE0AAF0BAB07AA06E4F98F
:1005E400F8AF18AE17AD16AC15120211C004C00551
:1005F400C006C007AE0AAF0BAB07AA06E4F9F8AF12
:1006040012AE11AD10AC0F120211A804A905AA066E
:10061400AB07D007D006D005D004C31202C7708040
:0B062400C2977FF47E01120856D297A7
:01062F0022A8
:1004E1001207968F1C8E1B8D1A8C19C3E51C951251
:1004F100F51CE51B9511F51BE51A9510F51AE51983
:10050100950FF519E47F0AFEFDFCAB1CAA1BA91A85
:10051100A819120186EC1200AEC004C005C006C0C5
:1005210007AC0AAD0BE41200B3A804A905AA06ABF7
:1005310007D007D006D005D0041200111200ECC379
:10054100EF950EFFEE950DFEE48F1C8E1BF51AF54F
:10055100197F107E27FDFCAB1CAA1BA91AA819C381
:100561001202B14011B297B2B57BFF7A07794B7D88
:10057100017F08020802AF1CAE1BAD1AAC19EC4D8D
:100581004E4F7004C2B58015E4FFFEFDFCAB1CAA02
:100591001BA91AA819D31202B14002D2B5D29712DF
:0305A10003F92239
:1002EB0020A42B7F057E0012085620A421E50E4585
:1002FB000D7008851B0D851C0E8005E4F50DF50EA4
:10030B00C2977F327E00120856D29730A4FD20A5EB
:10031B006C7F057E0012085620A56220A5370509C3
:10032B00E509C394644029E4F50920A523C3E50B33
:10033B009410E50A9427500B740A250BF50BE43542
:10034B000AF50A120850D2971208521204E180DA09
:10035B0012085280C6E5096021E4F509C3E50B9448
:10036B0010E50A94275008050BE50B7002050AC22D
:10037B00977F327E00120856D2971207D320A66DB4
:10038B007F057E0012085620A66320A6380509E5D6
:10039B0009C39464402AE4F50920A624D3E50B9401
:1003AB0001E50A9400400C74F6250BF50B74FF3530
:1003BB000AF50A120850D2971208521204E180D99A
:1003CB0012085280C5E5096021E4F509D3E50B94C9
:1003DB0001E50A94004008E50B150B7002150AC2E3
:0E03EB00977F327E00120856D2971207D32257
:06085000C2977F0A7E0042
:10085600E4FDFCC3ED9FEC9E5015E4FBFA0BBB00D8
:0F086600010AEB64794A70F50DBD00010C80E4C6
:010875002260
:03000B000208B632
:0408B600C0E0C0D00E
:1008BA00758C3C758AB00508E508C3940A4005752D
:0408CA000800D20050
:0508CE00D0D0D0E032A3
:100950007580FFC290D291D295AF80C295EF20E70B
:01096000F6A0
:010961002273
:10097400AE07120950C290C2918E80D295C29522C0
:10098400AE07120950D290C2918E80D295C29522A0
:10096200ED7004AC078004EF2440FCEC4480FF02ED
:02097200097406
:08000300120962AF0302098437
:100802008B1D8A1E891F120962AB1DAA1EA91F1207
:10081200016D6013051FE51F7002051E14F9120118
:080822006DFF12098480E2223F
:100903007F381209747F0C1209747F061209747FF1
:040913000102097460
:0309A7000000222B
:10079600D2921209A7C2937F007E007D007C0020C2
:1007A60092FDE4FBD29378011202D8C29330920DE7
:1007B600EF2401FFE43EFEE43DFDE43CFC0BBB18E8
:0C07C600E3D293ED6480FD1209A7C293FA
:0107D2002204
:07092A00C2AF8CE3EDF5E420
:0C093100C2AF53E71843E70143E7802200
:0B09940053E77FE4F5E5F5E6D2AF2263
:08099F0075E64675E6B9002279
:0408D300AD07AC06BB
:1008D700E4FF12092A53E5F843E50112099FAFE245
:0508E700120994D2AFDC
:0108EC0022E9
:10089700AB07AA06C2AF8AE3EBF5E412093153E5C9
:0F08A700F843E5028DE212099F120994D2AF22A5
:10093D00AD07AC0612092A53E5F843E50312099FEA
:03094D0002099408
:03000000020630C5
:0C063000787FE4F6D8FD75812002067783
:10000E00020162EC5D046005E859047003020158B8
:10001E00120123580460F6EC4860F2EC7004FDFE09
:10002E00FF22C860DB2481C85009C39860025006C5
:10003E0002015F9850CAF582E9294B4A7005AB82DE
:10004E0002014E75F0007C1A7880C3EF9BEE9AED9C
:10005E0099400DC3EF9BFFEE9AFEED99FDE842F03D
:10006E00DC23ACF0D0E0FFD0E0FED0E0FDAB822090
:10007E00E7101BEB60BAEC2CFCEF33FFEE33FEED1A
:10008E0033FD02013AE803F830E705C0F075F000E1
:10009E00EF2FFFEE33FEED33FD40B830E7C280AAFE
:1000AE0075F020800E75F010800575F0087D007ECD
:1000BE00007F003392D530D5031202A3EC334010EB
:1000CE00EF33FFEE33FEED33FDEC33FCD5F0ED22D6
:0E00DE00E5F0247EA2D513CC92E7CDCEFF2212
:1000EC00EDD2E7CD33EC3392D524814006E4FFFE0C
:1000FC00FDFC22FCE4CFCECDCC24E0501174FF806B
:10010C00EDC3CC13CCCD13CDCE13CECF13CF047007
:07011C00F030D5DE0202A362
:10012300E9D2E7C933E833F892D5EDD2E7CD33EC22
:0701330033FC5002B2D5229B
:10013A00EC30E7100FBF000C0EBE00080DBD000426
:10014A000BEB6014A2D5EB13FCED92E7FD2274FFD2
:10015A00FCFDFEFF22E480F8A2D574FF13FC7D802B
:03016A00E480EF3F
:10063C000206BCE493A3F8E493A34003F68001F212
:10064C0008DFF48029E493A3F85407240CC8C333BF
:10065C00C4540F4420C8834004F456800146F6DF8E
:10066C00E4800B0102040810204080900876E47EA0
:10067C00019360BCA3FF543F30E509541FFEE49383
:10068C00A360010ECF54C025E060A840B8E493A34A
:10069C00FAE493A3F8E493A3C8C582C8CAC583CA75
:1006AC00F0A3C8C582C8CAC583CADFE9DEE780BE2D
:010896000061
:10016D00BB010689828A83E0225002E722BBFE0290
:09017D00E32289828A83E49322C3
:10018600E88FF0A4CC8BF0A42CFCE98EF0A42CFC18
:100196008AF0EDA42CFCEA8EF0A4CDA8F08BF0A496
:1001A6002DCC3825F0FDE98FF0A42CCD35F0FCEBF5
:1001B6008EF0A4FEA9F0EB8FF0A4CFC5F02ECD39BA
:0F01C600FEE43CFCEAA42DCE35F0FDE43CFC2227
:1001D50075F008758200EF2FFFEE33FECD33CDCCE1
:1001E50033CCC58233C5829BED9AEC99E582984064
:1001F5000CF582EE9BFEED9AFDEC99FC0FD5F0D641
:10020500E4CEFBE4CDFAE4CCF9A88222B800C1B96A
:100215000059BA002DEC8BF084CFCECDFCE5F0CBA8
:10022500F97818EF2FFFEE33FEED33FDEC33FCEBE1
:1002350033FB10D703994004EB99FB0FD8E5E4F99C
:10024500FA227818EF2FFFEE33FEED33FDEC33FC89
:10025500C933C910D7059BE99A4007EC9BFCE99A7D
:10026500F90FD8E0E4C9FAE4CCFB2275F010EF2FC2
:10027500FFEE33FEED33FDCC33CCC833C810D707C2
:100285009BEC9AE899400AED9BFDEC9AFCE899F8FD
:0E0295000FD5F0DAE4CDFBE4CCFAE4C8F92290
:10075200C2D5E830E70FB2D5E4C39BFBE49AFAE4D2
:1007620099F9E498F8EC30E717B2D512078812022B
:1007720011E4C39BFBE49AFAE499F9E498F8800344
:1007820012021130D50DE4C39FFFE49EFEE49DFDED
:04079200E49CFC22C5
:0E02A300C3E49FFFE49EFEE49DFDE49CFC226C
:1002B100EB9FF5F0EA9E42F0E99D42F0EC6480C8C4
:0602C10064809845F02264
:1002C700EB9FF5F0EA9E42F0E99D42F0E89C45F08D
:0102D7002204
:1002D800E8600FEFC333FFEE33FEED33FDEC33FC84
:0302E800D8F12228
:00000001FF
