:1002DB0043757272656E743A00537572706C7573F8
:0202EB003A00D7
:1002AD00030CFF02DB030FFF02E4C100C1020112C8
:0902BD00000213000002080063B6
:0E0342001203111202C71200B21201D880F885
:10031100D2AF5389F0438901758C4CE4F58AD2A997
:0103210022B9
:1001D800AB0FAA10A911E4FD7F0112024AAE0AAFC3
:1001E8000B7C007D0A120027EF2430FBE4FD7F0919
:1001F800120003AE0AAF0B7C007D0A120027ED2423
:1002080030FBE4FD7F0A120003AB0CAA0DA90E7D9A
:10021800017F0112024AAE13AF147C007D0A12005E
:1002280027EF2430FB7D017F09120003AE13AF14C2
:100238007C007D0A120027ED2430FB7D017F0A0235
:020248000003B1
:0C035000C2977F147E00120272D2972226
:1000B20020A13420A104D202D28C30022A30010BBA
:1000C200C201C28CE4F512C202801C20A0EC30A056
:1000D200FDE514151470021513120350C201C28CEF
:1000E200E4F512C200C20220A02920A004D200D24C
:1000F2008C30001F300102801120A1F530A1FD05D6
:1001020014E51470020513120350C201C28CE4F507
:1001120012C200D3E5149400E51364809480500564
:10012200E4F513F514D3E5149509E5086480F8E5C0
:10013200136480984006850813850914C3E5099560
:0A01420014F50BE5089513F50A22E9
:10027200D3EF9400EE940040147D6E7C00ED1D706F
:0D028200011CED4C70F7EF1F70E61E80E3CD
:01028F00224C
:03000B000202905E
:10029000C0E0C0D0758C4C758A000512E512C3947D
:0D02A000644005751200D201D0D0D0E032CC
:1002ED007580FFC290D291D295AF80C295EF20E775
:0102FD00F60A
:0102FE0022DD
:10032200AE071202EDC290C2918E80D295C2952282
:10033200AE071202EDD290C2918E80D295C2952262
:1002FF00ED7004AC078004EF2440FCEC4480FF0257
:02030F000322C7
:080003001202FFAF03020332F9
:10024A008B158A1689171202FFAB15AA16A917125F
:10025A00000E60130517E5177002051614F912004F
:08026A000EFF12033280E222B4
:05035C007F01020322F5
:1002C7007F381203227F0C1203227F061203227F3C
:0402D70001020322FB
:0300000002014CAE
:0C014C00787FE4F6D8FD75812002019355
:10015800020342E493A3F8E493A34003F68001F278
:1001680008DFF48029E493A3F85407240CC8C333A8
:10017800C4540F4420C8834004F456800146F6DF77
:10018800E4800B01020408102040809002ADE47E58
:10019800019360BCA3FF543F30E509541FFEE4936C
:1001A800A360010ECF54C025E060A840B8E493A333
:1001B800FAE493A3F8E493A3C8C582C8CAC583CA5E
:1001C800F0A3C8C582C8CAC583CADFE9DEE780BE16
:0102C6000037
:10000E00BB010689828A83E0225002E722BBFE02F0
:09001E00E32289828A83E4932223
:10002700C2D5EC30E709B2D5E4C39DFDE49CFCEEF4
:1000370030E715B2D5E4C39FFFE49EFE12005DC30F
:10004700E49DFDE49CFC800312005D30D507C3E40A
:060057009FFFE49EFE2263
:10005D00BC000BBE0029EF8DF084FFADF022E4CC87
:10006D00F875F008EF2FFFEE33FEEC33FCEE9DEC50
:10007D00984005FCEE9DFE0FD5F0E9E4CEFD22ED96
:10008D00F8F5F0EE8420D21CFEADF075F008EF2FE0
:10009D00FFED33FD4007985006D5F0F222C398FDD1
:0500AD000FD5F0EA226E
:00000001FF
