:100708002057656C636F6D6520546F2055736520A5
:1007180000456C656374726F6E6963205363616C26
:10072800650053595354454D2052756E6E696E6776
:1007380000205765696768743A20302E3030306B76
:0907480067002D2D2E2D2D2D0032
:10087500C100041500000000040F00000000041969
:0E08850000000000020D000001090001080043
:1006BC001208EA1209001209147BFF7A077908E480
:1006CC00FDFF1208017BFF7A0779197D01E4FF1207
:1006DC0008011205A47BFF7A07792AE4FD7F011239
:1006EC0008017BFF7A0779397D01E4FF120801309C
:0C06FC000005C2001204E11202EB80F3C2
:10091400D2AF53893C4389B0758C3C758AB0D2A957
:03092400D28C2250
:1007D2007F007E2012093A751300850B14AD147F39
:1007E200007E20120894E50AF514751300AD147FFB
:0F07F200017E20120894AD0C7F607E20020894D7
:100829007F017E201208D0750A008F0B7F007E2081
:100839001208D0EFFDE50BF50AEDF50B7F607E2080
:060849001208D08F0C2202
:1008EA00120829E50C6401600C750A0D750BAC75CC
:0608FA000C011207D222DE
:1003F900E47B107A27F9F8AF1CAE1BAD1AAC1912C1
:100409000751EC4D4E4F70047B208016E47B107A27
:1004190027F9F8AF1CAE1BAD1AAC19120751EF241E
:1004290030FB7D017F08120003E47B107A27F9F87D
:10043900AF1CAE1BAD1AAC19120751AC00AD01AE21
:1004490002AF03E47BE87A03F9F8120751EF24308D
:10045900FB7D017F091200037B2E7D017F0A1200BB
:1004690003E47BE87A03F9F8AF1CAE1BAD1AAC19AB
:10047900120751AC00AD01AE02AF03E47B64FAF997
:10048900F8120751EF2430FB7D017F0B120003E4C2
:100499007B64FAF9F8AF1CAE1BAD1AAC19120751FF
:1004A900AC00AD01AE02AF03E47B0AFAF9F812071A
:1004B90051EF2430FB7D017F0C120003E47B0AFA23
:1004C900F9F8AF1CAE1BAD1AAC19120751EB243069
:0804D900FB7D017F0D02000311
:1005A4001207958F188E178D168C15E4F51DD2A69B
:1005B400C2A77F647E00120855D2A77F647E001212
:1005C4000855051DE51DC3940A40E31207958F12D3
:1005D4008E118D108C0FAE0AAF0BAB07AA06E4F98F
:1005E400F8AF18AE17AD16AC15120211C004C00551
:1005F400C006C007AE0AAF0BAB07AA06E4F9F8AF12
:1006040012AE11AD10AC0F120211A804A905AA066E
:10061400AB07D007D006D005D004C31202C7708040
:0B062400C2A67FF47E01120855D2A68A
:01062F0022A8
:1004E1001207958F1C8E1B8D1A8C19C3E51C951252
:1004F100F51CE51B9511F51BE51A9510F51AE51983
:10050100950FF519E47F0AFEFDFCAB1CAA1BA91A85
:10051100A819120186EC1200AEC004C005C006C0C5
:1005210007AC0AAD0BE41200B3A804A905AA06ABF7
:1005310007D007D006D005D0041200111200ECC379
:10054100EF950EFFEE950DFEE48F1C8E1BF51AF54F
:10055100197F107E27FDFCAB1CAA1BA91AA819C381
:100561001202B14011B2A6B2A77BFF7A07794A7D88
:10057100017F08020801AF1CAE1BAD1AAC19EC4D8E
:100581004E4F7004C2A78015E4FFFEFDFCAB1CAA10
:100591001BA91AA819D31202B14002D2A7D2A612DE
:0305A10003F92239
:1002EB0020A22B7F057E0012085520A221E50E458A
:1002FB000D7008851B0D851C0E8005E4F50DF50EA4
:10030B00C2A67F327E00120855D2A630A2FD20A1D4
:10031B006C7F057E0012085520A16220A1370509CC
:10032B00E509C394644029E4F50920A123C3E50B37
:10033B009410E50A9427500B740A250BF50BE43542
:10034B000AF50A12084FD2A61208511204E180DAFC
:10035B0012085180C6E5096021E4F509C3E50B9449
:10036B0010E50A94275008050BE50B7002050AC22D
:10037B00A67F327E00120855D2A61207D220A06D9E
:10038B007F057E0012085520A06320A0380509E5E3
:10039B0009C39464402AE4F50920A024D3E50B9407
:1003AB0001E50A9400400C74F6250BF50B74FF3530
:1003BB000AF50A12084FD2A61208511204E180D98D
:1003CB0012085180C5E5096021E4F509D3E50B94CA
:1003DB0001E50A94004008E50B150B7002150AC2E3
:0E03EB00A67F327E00120855D2A61207D2223B
:06084F00C2A67F0A7E0034
:10085500E4FDFCC3ED9FEC9E5015E4FBFA0BBB00D9
:0F086500010AEB64794A70F50DBD00010C80E4C7
:010874002261
:03000B000208B335
:0408B300C0E0C0D011
:1008B700758C3C758AB00508E508C3940A40057530
:0408C7000800D20053
:0508CB00D0D0D0E032A6
:10094D007580FFC290D291D292AF80C292EF20E714
:01095D00F6A3
:01095E002276
:10097100AE0712094DC290C2918E80D292C29222CC
:10098100AE0712094DD290C2918E80D292C29222AC
:10095F00ED7004AC078004EF2440FCEC4480FF02F0
:02096F0009710C
:0800030012095FAF030209813D
:100801008B1D8A1E891F12095FAB1DAA1EA91F120B
:10081100016D6013051FE51F7002051E14F9120119
:080821006DFF12098180E22243
:100900007F381209717F0C1209717F061209717FFD
:040910000102097166
:0309A4000000222E
:10079500D2941209A4C2957F007E007D007C0020C2
:1007A50094FDE4FBD29578011202D8C29530940DE0
:1007B500EF2401FFE43EFEE43DFDE43CFC0BBB18E9
:0C07C500E3D295ED6480FD1209A4C295FA
:0107D1002205
:07092700C2AF8CE3EDF5E423
:0C092E00C2AF53E71843E70143E7802203
:0B09910053E77FE4F5E5F5E6D2AF2266
:08099C0075E64675E6B900227C
:0408D000AD07AC06BE
:1008D400E4FF12092753E5F843E50112099CAFE24E
:0508E400120991D2AFE2
:0108E90022EC
:10089400AB07AA06C2AF8AE3EBF5E412092E53E5CF
:0F08A400F843E5028DE212099C120991D2AF22AE
:10093A00AD07AC0612092753E5F843E50312099CF3
:03094A000209910E
:03000000020630C5
:0C063000787FE4F6D8FD75812002067783
:10000E00020162EC5D046005E859047003020158B8
:10001E00120123580460F6EC4860F2EC7004FDFE09
:10002E00FF22C860DB2481C85009C39860025006C5
:10003E0002015F9850CAF582E9294B4A7005AB82DE
:10004E0002014E75F0007C1A7880C3EF9BEE9AED9C
:10005E0099400DC3EF9BFFEE9AFEED99FDE842F03D
:10006E00DC23ACF0D0E0FFD0E0FED0E0FDAB822090
:10007E00E7101BEB60BAEC2CFCEF33FFEE33FEED1A
:10008E0033FD02013AE803F830E705C0F075F000E1
:10009E00EF2FFFEE33FEED33FD40B830E7C280AAFE
:1000AE0075F020800E75F010800575F0087D007ECD
:1000BE00007F003392D530D5031202A3EC334010EB
:1000CE00EF33FFEE33FEED33FDEC33FCD5F0ED22D6
:0E00DE00E5F0247EA2D513CC92E7CDCEFF2212
:1000EC00EDD2E7CD33EC3392D524814006E4FFFE0C
:1000FC00FDFC22FCE4CFCECDCC24E0501174FF806B
:10010C00EDC3CC13CCCD13CDCE13CECF13CF047007
:07011C00F030D5DE0202A362
:10012300E9D2E7C933E833F892D5EDD2E7CD33EC22
:0701330033FC5002B2D5229B
:10013A00EC30E7100FBF000C0EBE00080DBD000426
:10014A000BEB6014A2D5EB13FCED92E7FD2274FFD2
:10015A00FCFDFEFF22E480F8A2D574FF13FC7D802B
:03016A00E480EF3F
:10063C000206BCE493A3F8E493A34003F68001F212
:10064C0008DFF48029E493A3F85407240CC8C333BF
:10065C00C4540F4420C8834004F456800146F6DF8E
:10066C00E4800B0102040810204080900875E47EA1
:10067C00019360BCA3FF543F30E509541FFEE49383
:10068C00A360010ECF54C025E060A840B8E493A34A
:10069C00FAE493A3F8E493A3C8C582C8CAC583CA75
:1006AC00F0A3C8C582C8CAC583CADFE9DEE780BE2D
:010893000064
:10016D00BB010689828A83E0225002E722BBFE0290
:09017D00E32289828A83E49322C3
:10018600E88FF0A4CC8BF0A42CFCE98EF0A42CFC18
:100196008AF0EDA42CFCEA8EF0A4CDA8F08BF0A496
:1001A6002DCC3825F0FDE98FF0A42CCD35F0FCEBF5
:1001B6008EF0A4FEA9F0EB8FF0A4CFC5F02ECD39BA
:0F01C600FEE43CFCEAA42DCE35F0FDE43CFC2227
:1001D50075F008758200EF2FFFEE33FECD33CDCCE1
:1001E50033CCC58233C5829BED9AEC99E582984064
:1001F5000CF582EE9BFEED9AFDEC99FC0FD5F0D641
:10020500E4CEFBE4CDFAE4CCF9A88222B800C1B96A
:100215000059BA002DEC8BF084CFCECDFCE5F0CBA8
:10022500F97818EF2FFFEE33FEED33FDEC33FCEBE1
:1002350033FB10D703994004EB99FB0FD8E5E4F99C
:10024500FA227818EF2FFFEE33FEED33FDEC33FC89
:10025500C933C910D7059BE99A4007EC9BFCE99A7D
:10026500F90FD8E0E4C9FAE4CCFB2275F010EF2FC2
:10027500FFEE33FEED33FDCC33CCC833C810D707C2
:100285009BEC9AE899400AED9BFDEC9AFCE899F8FD
:0E0295000FD5F0DAE4CDFBE4CCFAE4C8F92290
:10075100C2D5E830E70FB2D5E4C39BFBE49AFAE4D3
:1007610099F9E498F8EC30E717B2D512078712022D
:1007710011E4C39BFBE49AFAE499F9E498F8800345
:1007810012021130D50DE4C39FFFE49EFEE49DFDEE
:04079100E49CFC22C6
:0E02A300C3E49FFFE49EFEE49DFDE49CFC226C
:1002B100EB9FF5F0EA9E42F0E99D42F0EC6480C8C4
:0602C10064809845F02264
:1002C700EB9FF5F0EA9E42F0E99D42F0E89C45F08D
:0102D7002204
:1002D800E8600FEFC333FFEE33FEED33FDEC33FC84
:0302E800D8F12228
:00000001FF
