:10031E0057656C636F6D65205553452100535953D6
:10032E0054454D2052756E6E696E672100535953B8
:10033E0054454D2052756E6E696E670054653A20B5
:08034E00300068753A20300010
:1003CC00C100C101080A0000000000000000011279
:0B03DC000001130001140002080000E3
:10021100C2A7C2A61203E81201997F807E251203AC
:10022100563000FDC200E50AB453F6E50BB459F1AE
:10023100E50CB459ECE511B448E71203A8E50D2427
:10024100D075F00AA4FFE50E24D02FF513E50F2495
:10025100D075F00AA4FFE51024D02FF514E513C3DF
:1002610094145007744BC3951440B6E4F513F51478
:10027100C293C294D2957FC8FE120003D294C29554
:04028100D293809DF7
:10035600D2AF75985053890F438920AB07AA06E49C
:10036600F9F87F807E70FDFC1202DAEFF404F58D59
:0A037600858D8BC2ABD2ACD28E2273
:100199007BFF7A03791EE4FD7F021203807BFF7ADD
:1001A90003792B7D017F011203807FDC7E0512001C
:1001B900031204487BFF7A03793BE4FD7F011203B4
:1001C900807BFF7A03794A7D01E4FF1203807BDF9C
:1001D9007D017F051204407B437D017F06120440A7
:1001E9007BFF7A0379507D017F081203807B257D8F
:1001F900017F0D1204407B527D017F0E1204407B6A
:08020900487D017F0F02044053
:1003A800AB0D7D017F03120440AB0E7D017F04126B
:1003B8000440AB0F7D017F0B120440AB107D017F21
:0403C8000C020440DF
:10000300D3EF9400EE940040147D6E7C00ED1D70E0
:0D001300011CED4C70F7EF1F70E61E80E33E
:0100200022BD
:0300230002028551
:09028500C0E0C0D075D000C0003B
:10028E00309842C298859912E512B45311E509458A
:10029E0008700B740A2509F8A612D20180273001C6
:1002AE00240509E50970020508240AF8A612C3E51B
:1002BE00099407E50864809480400A750800750962
:0502CE0000C201D20096
:0702D300D000D0D0D0E032D2
:1003FC007580FFC290D291D292AF80C292EF20E76B
:01040C00F6F9
:01040D0022CC
:10042000AE071203FCC290C2918E80D292C2922279
:10043000AE071203FCD290C2918E80D292C2922259
:10040E00ED7004AC078004EF2440FCEC4480FF0246
:02041E000420B8
:0804400012040EAF03020430A8
:100380008B158A16891712040EAB15AA16A9171217
:10039000002660130517E5177002051614F9120000
:0803A00026FF12043080E22266
:050448007F0102042009
:1003E8007F381204207F0C1204207F061204207F1D
:0403F80001020420DA
:0300000002010DED
:0C010D00787FE4F6D8FD758120020154D3
:10011900020211E493A3F8E493A34003F68001F2E9
:1001290008DFF48029E493A3F85407240CC8C333E7
:10013900C4540F4420C8834004F456800146F6DFB6
:10014900E4800B01020408102040809003CCE47E77
:10015900019360BCA3FF543F30E509541FFEE493AB
:10016900A360010ECF54C025E060A840B8E493A372
:10017900FAE493A3F8E493A3C8C582C8CAC583CA9D
:10018900F0A3C8C582C8CAC583CADFE9DEE780BE55
:0103E7000015
:10002600BB010689828A83E0225002E722BBFE02D8
:09003600E32289828A83E493220B
:1002DA00C2D5E830E70FB2D5E4C39BFBE49AFAE44F
:1002EA0099F9E498F8EC30E717B2D5120310120026
:1002FA007BE4C39BFBE49AFAE499F9E498F8800357
:10030A0012007B30D50DE4C39FFFE49EFEE49DFD01
:04031A00E49CFC2241
:10003F0075F008758200EF2FFFEE33FECD33CDCC78
:10004F0033CCC58233C5829BED9AEC99E5829840FB
:10005F000CF582EE9BFEED9AFDEC99FC0FD5F0D6D8
:10006F00E4CEFBE4CDFAE4CCF9A88222B800C1B902
:10007F000059BA002DEC8BF084CFCECDFCE5F0CB40
:10008F00F97818EF2FFFEE33FEED33FDEC33FCEB79
:10009F0033FB10D703994004EB99FB0FD8E5E4F934
:1000AF00FA227818EF2FFFEE33FEED33FDEC33FC21
:1000BF00C933C910D7059BE99A4007EC9BFCE99A15
:1000CF00F90FD8E0E4C9FAE4CCFB2275F010EF2F5A
:1000DF00FFEE33FEED33FDCC33CCC833C810D7075A
:1000EF009BEC9AE899400AED9BFDEC9AFCE899F895
:0E00FF000FD5F0DAE4CDFBE4CCFAE4C8F92228
:00000001FF
