:09019300617368696E696E670012
:0501B6000308FF0193A6
:100109001200E71201AEAB08AA09A90A7D087C0012
:10011900120149E4FF12017E7FE87E031201678024
:01012900E5F0
:10012A007F017E007D507C00EF1FAA0670011E4AE7
:0E013A00600CED1DAA0470011C4A60EC80F4FC
:010148002294
:100167008F828E83E5821582AE83700215834E607F
:070177000512012A80EE22AF
:0801AE00439201D290D291228C
:09019C00EF7003C29022C291220F
:0901A500EF7003D29022D29122E6
:10017E00EF7009309003C29022D29022309103C2C8
:05018E009122D2912234
:1000E70043B20243B101D2B153982F439850538979
:1000F700CF438920E4F587758DFD758BFDD299D2A5
:020107008E2246
:10014900ED1DAE0470011C4E60133099FDC2991269
:0E01590000BCF599740129F9E43AFA80E3221A
:10008F00E4F50B7FFF7E7FEF1FAC0670011E4C6007
:10009F00193098F3C298E5991200D5740129F9E443
:0C00AF003AFA050B7E7F7FFF80DDAF0B6F
:0100BB002222
:03000000020003F8
:0C000300787FE4F6D8FD75810B02004AFE
:1000BC00BB010689828A83E0225002E722BBFE0242
:0900CC00E32289828A83E4932275
:1000D500BB010689828A83F0225002F722BBFE010A
:0200E500F32204
:10000F00020109E493A3F8E493A34003F68001F2FD
:10001F0008DFF48029E493A3F85407240CC8C333F2
:10002F00C4540F4420C8834004F456800146F6DFC1
:10003F00E4800B01020408102040809001B6E47E9A
:10004F00019360BCA3FF543F30E509541FFEE493B6
:10005F00A360010ECF54C025E060A840B8E493A37D
:10006F00FAE493A3F8E493A3C8C582C8CAC583CAA8
:10007F00F0A3C8C582C8CAC583CADFE9DEE780BE60
:0101BB000043
:00000001FF
