:1004210057656C636F6D65205553452100535953D2
:1004310054454D2052756E6E696E672100416C6C9A
:100441003A005375723A004375723A002020202019
:1004510041646A7573742020200020202020202010
:080461002020202000202000D3
:10052300C102C103C101011400060B000000000059
:1005330000011263011100011300C1000208000051
:03054300010A00AA
:1003D000C2A7C2A612000E1206811204FF7F807E01
:1003E000251204AD12063F300214C202E50BB453CD
:1003F0000DE50CB45908E50FB4480312065012017C
:1004000062C3E5129511FFBF0512C2937F647E009F
:1004100012054BD2937F647E0012054B1202FC80C2
:01042000C615
:10063F005389F0438901758C4CE4F58AD2A9D28C89
:01064F002288
:1004AD00D2AF75985053890F438920AB07AA06E444
:1004BD00F9F87F807E70FDFC120469EFF404F58D70
:0A04CD00858D8BC2ABD2ACD28E221B
:1005A9007F007E201206087D637F007E2012058A67
:0C05B900A201E433FD7F607E2002058A71
:1005DF007F007E201205C58F127F607E201205C519
:0605EF00EF24FF9201223F
:0C0681001205DF200105D2011205A9229C
:1004FF007BFF7A047921E4FD7F021204D77BFF7A18
:10050F0004792E7D017F011204D77FDC7E05120551
:04051F004B0206A0E5
:10065000E50D24D075F00AA4FFE50E24D02FF51186
:010660002277
:1002FC0020A21312054720A20D120162E51304542B
:10030C0001F51330A2FD20A12A12054720A124E5F6
:10031C0013B4011C120162E512C39463501205124E
:10032C007F007E20120608AD127F007E2012058A07
:10033C0030A1FD20A03812054720A032120162E541
:10034C0013B40127E5112401FFE433FED3E5129F1A
:10035C00EE6480F8748098401215127F007E201293
:0F036C000608AD127F007E2012058A30A0FD2208
:10016200E513600302020A7BFF7A04793EFD7F04F5
:100172001204D7E51275F00A842430FBE4FD7F08EF
:10018200120698E51275F00A84E5F02430FBE4FDCE
:100192007F091206987BFF7A0479437D01E4FF12FE
:1001A20004D7C3E5129511FFE49400FE7C007D0A9A
:1001B20012003FEF2430FB7D017F04120698C3E555
:1001C200129511FFE49400FE7C007D0A12003FEDBF
:1001D2002430FB7D017F051206987BFF7A04794863
:1001E2007D017F081204D7E51175F00A842430FBE3
:1001F2007D017F0C120698E51175F00A84E5F02462
:1002020030FB7D017F0D80487BFF7A04794DE4FD50
:10021200FF1204D77BFF7A04793E7D01E4FF1204CA
:10022200D77BFF7A04795B7D017F061204D7300009
:1002320022E51275F00A842430FB7D017F04120648
:1002420098E51275F00A84E5F02430FB7D017F0504
:100252000206987BFF7A0479667D017F041204D737
:0E0262007BFF7A0479667D017F051204D722A6
:040547007F0A7E00A9
:10054B00D3EF9400EE940040147D6E7C00ED1D7093
:0D055B00011CED4C70F7EF1F70E61E80E3F1
:010568002270
:0300230002037B5A
:09037B00C0E0C0D075D000C00044
:10038400309842C298859914E514B45311E509458F
:1003940008700B740B2509F8A614D20380273003C8
:1003A400240509E50970020508240BF8A614C3E521
:1003B400099404E50864809480400A75080075096E
:0503C40000C203D2029B
:0703C900D000D0D0D0E032DB
:03000B0002056982
:06056900C0E0C0F0C0D0AC
:10056F00758C4C758A00050AE50A75F00584E5F06F
:04057F007002B20054
:07058300D0D0D0F0D0E0322F
:0705F500C2AF8CE3EDF5E459
:0C05FC00C2AF53E71843E70143E7802239
:0B068D0053E77FE4F5E5F5E6D2AF226D
:0800030075E64675E6B900221E
:0405C500AD07AC06CC
:1005C900E4FF1205F553E5F843E501120003AFE234
:0505D90012068DD2AFF7
:0105DE0022FA
:10058A00AB07AA06C2AF8AE3EBF5E41205FC53E512
:0F059A00F843E5028DE212000312068DD2AF2264
:10060800AD07AC061205F553E5F843E50312000300
:0306180002068D4A
:10061B007580FFC290D291D292AF80C292EF20E749
:01062B00F6D8
:01062C0022AB
:10066100AE0712061BC290C2918E80D292C2922214
:10067100AE0712061BD290C2918E80D292C29222F4
:10062D00ED7004AC078004EF2440FCEC4480FF0225
:02063D00066154
:0806980012062DAF03020671EA
:1004D7008B158A16891712062DAB15AA16A917129E
:1004E700002660130517E5177002051614F91200A8
:0804F70026FF12067180E222CB
:0506A0007F010206616C
:10000E007F381206617F0C1206617F061206617F31
:04001E000102066174
:0300000002027089
:0C027000787FE4F6D8FD7581200202B70B
:10027C000203D0E493A3F8E493A34003F68001F2C5
:10028C0008DFF48029E493A3F85407240CC8C33383
:10029C00C4540F4420C8834004F456800146F6DF52
:1002AC00E4800B0102040810204080900523E47EBA
:1002BC00019360BCA3FF543F30E509541FFEE49347
:1002CC00A360010ECF54C025E060A840B8E493A30E
:1002DC00FAE493A3F8E493A3C8C582C8CAC583CA39
:1002EC00F0A3C8C582C8CAC583CADFE9DEE780BEF1
:0105460000B4
:10002600BB010689828A83E0225002E722BBFE02D8
:09003600E32289828A83E493220B
:10003F00BC000BBE0029EF8DF084FFADF022E4CCA5
:10004F00F875F008EF2FFFEE33FEEC33FCEE9DEC6E
:10005F00984005FCEE9DFE0FD5F0E9E4CEFD22EDB4
:10006F00F8F5F0EE8420D21CFEADF075F008EF2FFE
:10007F00FFED33FD4007985006D5F0F222C398FDEF
:05008F000FD5F0EA228C
:10046900C2D5E830E70FB2D5E4C39BFBE49AFAE4BE
:1004790099F9E498F8EC30E717B2D512049F120005
:10048900D0E4C39BFBE49AFAE499F9E498F8800371
:100499001200D030D50DE4C39FFFE49EFEE49DFD1C
:0404A900E49CFC22B1
:1000940075F008758200EF2FFFEE33FECD33CDCC23
:1000A40033CCC58233C5829BED9AEC99E5829840A6
:1000B4000CF582EE9BFEED9AFDEC99FC0FD5F0D683
:1000C400E4CEFBE4CDFAE4CCF9A88222B800C1B9AD
:1000D4000059BA002DEC8BF084CFCECDFCE5F0CBEB
:1000E400F97818EF2FFFEE33FEED33FDEC33FCEB24
:1000F40033FB10D703994004EB99FB0FD8E5E4F9DF
:10010400FA227818EF2FFFEE33FEED33FDEC33FCCB
:10011400C933C910D7059BE99A4007EC9BFCE99ABF
:10012400F90FD8E0E4C9FAE4CCFB2275F010EF2F04
:10013400FFEE33FEED33FDCC33CCC833C810D70704
:100144009BEC9AE899400AED9BFDEC9AFCE899F83F
:0E0154000FD5F0DAE4CDFBE4CCFAE4C8F922D2
:00000001FF
