:10041C0057656C636F6D65205553452100535953D7
:10042C0054454D2052756E6E696E672100416C6C9F
:10043C003A005375723A004375723A00202020201E
:10044C0041646A7573742020200020202020202015
:08045C002020202000202000D8
:10051E00C102C103C101011300050B000000000060
:10052E00011163011000011200C100020800000158
:02053E000A00B1
:1003D300C2A7C2A612000E12067B1204FA7F807E09
:1003E300251204A8120639300214C202E50BB453D5
:1003F3000DE50CB45908E50FB4480312064A12017F
:1004030062C3E5119510FFBF0506C293C294800431
:09041300D293D2941202FC80CEB7
:100639005389F0438901758C4CE4F58AD2A9D28C8F
:01064900228E
:1004A800D2AF75985053890F438920AB07AA06E449
:1004B800F9F87F807E70FDFC120464EFF404F58D7A
:0A04C800858D8BC2ABD2ACD28E2220
:1005A3007F007E201206027D637F007E2012058479
:0C05B300A201E433FD7F607E200205847D
:1005D9007F007E201205BF8F117F607E201205BF2C
:0605E900EF24FF92012245
:0C067B001205D9200105D2011205A322AE
:1004FA007BFF7A04791CE4FD7F021204D27BFF7A27
:10050A000479297D017F011204D27FDC7E05120560
:04051A004502069AF6
:10064A00E50D24D075F00AA4FFE50E24D02FF5108D
:01065A00227D
:1002FC0020A21312054120A20D120162E512045432
:10030C0001F51230A2FD20A12A12054120A124E5FD
:10031C0012B4011C120162E511C394635012051151
:10032C007F007E20120602AD117F007E2012058414
:10033C0030A1FD20A03812054120A032120162E547
:10034C0012B40127E5102401FFE433FED3E5119F1D
:10035C00EE6480F8748098401215117F007E201294
:0F036C000602AD117F007E2012058430A0FD2215
:10016200E512600302020A7BFF7A047939FD7F04FB
:100172001204D2E51175F00A842430FBE4FD7F08F5
:10018200120692E51175F00A84E5F02430FBE4FDD5
:100192007F091206927BFF7A04793E7D01E4FF1209
:1001A20004D2C3E5119510FFE49400FE7C007D0AA1
:1001B20012003FEF2430FB7D017F04120692C3E55B
:1001C200119510FFE49400FE7C007D0A12003FEDC1
:1001D2002430FB7D017F051206927BFF7A0479436E
:1001E2007D017F081204D2E51075F00A842430FBE9
:1001F2007D017F0C120692E51075F00A84E5F02469
:1002020030FB7D017F0D80487BFF7A047948E4FD55
:10021200FF1204D27BFF7A0479397D01E4FF1204D4
:10022200D27BFF7A0479567D017F061204D2300018
:1002320022E51175F00A842430FB7D017F04120649
:1002420092E51175F00A84E5F02430FB7D017F050B
:100252000206927BFF7A0479617D017F041204D247
:0E0262007BFF7A0479617D017F051204D222B0
:040541007F057E00B4
:10054500D3EF9400EE940040147D6E7C00ED1D7099
:0D055500011CED4C70F7EF1F70E61E80E3F7
:010562002276
:0300230002037B5A
:09037B00C0E0C0D075D000C00044
:10038400309845C298859913E513B45311E509458E
:1003940008700B740B2509F8A613D20380273003C9
:1003A400240509E50970020508240BF8A613C3E522
:1003B400099404E50864809480400A75080075096E
:0803C40000C203D20285139967
:0703CC00D000D0D0D0E032D8
:03000B0002056388
:06056300C0E0C0F0C0D0B2
:10056900758C4C758A00050AE50A75F00584E5F075
:040579007002B2005A
:07057D00D0D0D0F0D0E03235
:0705EF00C2AF8CE3EDF5E45F
:0C05F600C2AF53E71843E70143E780223F
:0B06870053E77FE4F5E5F5E6D2AF2273
:0800030075E64675E6B900221E
:0405BF00AD07AC06D2
:1005C300E4FF1205EF53E5F843E501120003AFE240
:0505D300120687D2AF03
:0105D8002200
:10058400AB07AA06C2AF8AE3EBF5E41205F653E51E
:0F059400F843E5028DE2120003120687D2AF2270
:10060200AD07AC061205EF53E5F843E5031200030C
:0306120002068756
:100615007580FFC290D291D292AF80C292EF20E74F
:01062500F6DE
:0106260022B1
:10065B00AE07120615C290C2918E80D292C2922220
:10066B00AE07120615D290C2918E80D292C2922200
:10062700ED7004AC078004EF2440FCEC4480FF022B
:02063700065B60
:08069200120627AF0302066BFC
:1004D2008B148A158916120627AB14AA15A91612AF
:1004E200002660130516E5167002051514F91200B0
:0804F20026FF12066B80E222D6
:05069A007F0102065B78
:10000E007F3812065B7F0C12065B7F0612065B7F43
:04001E000102065B7A
:0300000002027089
:0C027000787FE4F6D8FD7581200202B70B
:10027C000203D3E493A3F8E493A34003F68001F2C2
:10028C0008DFF48029E493A3F85407240CC8C33383
:10029C00C4540F4420C8834004F456800146F6DF52
:1002AC00E4800B010204081020408090051EE47EBF
:1002BC00019360BCA3FF543F30E509541FFEE49347
:1002CC00A360010ECF54C025E060A840B8E493A30E
:1002DC00FAE493A3F8E493A3C8C582C8CAC583CA39
:1002EC00F0A3C8C582C8CAC583CADFE9DEE780BEF1
:0105400000BA
:10002600BB010689828A83E0225002E722BBFE02D8
:09003600E32289828A83E493220B
:10003F00BC000BBE0029EF8DF084FFADF022E4CCA5
:10004F00F875F008EF2FFFEE33FEEC33FCEE9DEC6E
:10005F00984005FCEE9DFE0FD5F0E9E4CEFD22EDB4
:10006F00F8F5F0EE8420D21CFEADF075F008EF2FFE
:10007F00FFED33FD4007985006D5F0F222C398FDEF
:05008F000FD5F0EA228C
:10046400C2D5E830E70FB2D5E4C39BFBE49AFAE4C3
:1004740099F9E498F8EC30E717B2D512049A12000F
:10048400D0E4C39BFBE49AFAE499F9E498F8800376
:100494001200D030D50DE4C39FFFE49EFEE49DFD21
:0404A400E49CFC22B6
:1000940075F008758200EF2FFFEE33FECD33CDCC23
:1000A40033CCC58233C5829BED9AEC99E5829840A6
:1000B4000CF582EE9BFEED9AFDEC99FC0FD5F0D683
:1000C400E4CEFBE4CDFAE4CCF9A88222B800C1B9AD
:1000D4000059BA002DEC8BF084CFCECDFCE5F0CBEB
:1000E400F97818EF2FFFEE33FEED33FDEC33FCEB24
:1000F40033FB10D703994004EB99FB0FD8E5E4F9DF
:10010400FA227818EF2FFFEE33FEED33FDEC33FCCB
:10011400C933C910D7059BE99A4007EC9BFCE99ABF
:10012400F90FD8E0E4C9FAE4CCFB2275F010EF2F04
:10013400FFEE33FEED33FDCC33CCC833C810D70704
:100144009BEC9AE899400AED9BFDEC9AFCE899F83F
:0E0154000FD5F0DAE4CDFBE4CCFAE4C8F922D2
:00000001FF
