:0D034C00012400081C00000000000000005B
:1002CB00C2A7C2A67F807E2512027C7FE87E031226
:1002DB0003111200FE1202A67B007A00791C120297
:0302EB00EE80E8BA
:10027C00D2AF75985053890F438920AB07AA06E477
:10028C00F9F87F807E70FDFC120238EFF404F58DD6
:0A029C00858D8BC2ABD2ACD28E224E
:1002A600751C53751D59751E59E5102430F51FE54B
:1002B600112430F520E50E2430F521E50F2430F524
:0502C60022752348220F
:0602EE008B258A268927FA
:1002F400E4FFAB25AA26A9278F8275830012000389
:0C030400600AF5990F3099FDC29980E65F
:0103100022CA
:0E03590002100000020E000001170001180043
:03037F00DFFE227C
:10031100D3EF9400EE940040147D6E7C00ED1D70CF
:0D032100011CED4C70F7EF1F70E61E80E32D
:01032E0022AC
:10036800D2A77F1412037FC2A77F147E0012031145
:07037800D2A77F1402037FEE
:10032F00E4FEFD30A7FD7F1412037FEE25E0FE30C3
:0C033F00A7010E20A7FD0DBD08E9AF06C8
:01034B00228F
:1000FE00120368E517D394045010A2A7E433FF74DB
:10010E00122517F8A60705178024E4F517F51874BD
:10011E00122518F8E6640160028013750EFD750F46
:10012E00FD7510FD7511FD0518E518B405E120A744
:10013E006C30A7FD7F2812037F12032F8F25120329
:10014E002F8F2612032F8F2712032FA90712032F8B
:10015E008F2A7F1412037FE5252526FFE433FE7CCC
:10016E0000EF2527FFEC3EFEE92FFFEC3EFEEFB53C
:10017E002A0DECB50609AA25852628AB278929EA7A
:10018E0075F00A84F50EEA75F00A8485F00FEB75AA
:0D019E00F00A84F510EB75F00A8485F0116D
:0101AB002231
:030000000201AC4E
:0C01AC00787FE4F6D8FD75812A0201F38B
:1001B8000202CBE493A3F8E493A34003F68001F290
:1001C80008DFF48029E493A3F85407240CC8C33348
:1001D800C4540F4420C8834004F456800146F6DF17
:1001E800E4800B010204081020408090034CE47E58
:1001F800019360BCA3FF543F30E509541FFEE4930C
:10020800A360010ECF54C025E060A840B8E493A3D2
:10021800FAE493A3F8E493A3C8C582C8CAC583CAFD
:10022800F0A3C8C582C8CAC583CADFE9DEE780BEB5
:010367000095
:10000300BB010CE58229F582E5833AF583E02250B2
:1000130006E92582F8E622BBFE06E92582F8E222FC
:0D002300E58229F582E5833AF583E4932216
:10023800C2D5E830E70FB2D5E4C39BFBE49AFAE4F1
:1002480099F9E498F8EC30E717B2D512026E12006B
:100258006CE4C39BFBE49AFAE499F9E498F8800308
:1002680012006C30D50DE4C39FFFE49EFEE49DFDB3
:04027800E49CFC22E4
:1000300075F008758200EF2FFFEE33FECD33CDCC87
:1000400033CCC58233C5829BED9AEC99E58298400A
:100050000CF582EE9BFEED9AFDEC99FC0FD5F0D6E7
:10006000E4CEFBE4CDFAE4CCF9A88222B800C1B911
:100070000059BA002DEC8BF084CFCECDFCE5F0CB4F
:10008000F97818EF2FFFEE33FEED33FDEC33FCEB88
:1000900033FB10D703994004EB99FB0FD8E5E4F943
:1000A000FA227818EF2FFFEE33FEED33FDEC33FC30
:1000B000C933C910D7059BE99A4007EC9BFCE99A24
:1000C000F90FD8E0E4C9FAE4CCFB2275F010EF2F69
:1000D000FFEE33FEED33FDCC33CCC833C810D70769
:1000E0009BEC9AE899400AED9BFDEC9AFCE899F8A4
:0E00F0000FD5F0DAE4CDFBE4CCFAE4C8F92237
:00000001FF
