:0300000002026396
:0C026300787FE4F6D8FD7581200202AA25
:1003E2007580FFC290D291D295AF80C295EF20E77F
:0103F200F614
:0103F30022E7
:10041700AE071203E2C290C2918E80D295C2952296
:10042700AE071203E2D290C2918E80D295C2952276
:1003F400ED7004AC078004EF2440FCEC4480FF0261
:020404000417DB
:080437001203F4AF03020427D5
:1003CE007F381204177F0C1204177F061204177F52
:0403DE0001020417FD
:10040600020E00000608000000000000C100C10145
:10019C00D2B8D2BA1203CE1200067F807E2512038B
:1001AC0033300056C2007F057E001203B020B24AE5
:1001BC00050FE50F7002050EC39463E50E64809481
:1001CC00804006750E00750F6312035D120387AE37
:1001DC000EAF0F7C007D0A120043EF2430FBE4FDD0
:1001EC00FF120437AE0EAF0F7C007D0A120043EDF8
:1001FC002430FBE4FD7F011204373001A4C2017FDF
:10020C00057E001203B020B398E50F150F70021590
:10021C000ED3E50F9400E50E648094805005E4F550
:10022C000EF50F12035D120387AE0EAF0F7C007D2F
:10023C000A120043EF2430FBE4FDFF120437AE0E2C
:10024C00AF0F7C007D0A120043ED2430FBE4FD7FF0
:07025C00011204370201AD9D
:09000600D288D2A8D28AD2AA2223
:10033300D2AF75985053890F438920AB07AA06E4BF
:10034300F9F87F807E70FDFC1202EFEFF404F58D67
:0A035300858D8BC2ABD2ACD28E2296
:10035D00750853750959AE0EAF0F7C007D0A12005A
:10036D0043EF2430F50AAE0EAF0F7C007D0A12006C
:0A037D0043ED2430F50B750C482207
:0300030002000FE9
:03000F00D20032EA
:0300130002043FA5
:03043F00D20132B5
:1003B000D3EF9400EE940040147D6E7C00ED1D7030
:0D03C000011CED4C70F7EF1F70E61E80E38E
:0103CD00220D
:060387007B007A007908FA
:06038D008B108A11891299
:10039300E4FFAB10AA11A9128F8275830012001615
:0C03A300600AF5990F3099FDC29980E6C0
:0103AF00222B
:10026F0002019CE493A3F8E493A34003F68001F208
:10027F0008DFF48029E493A3F85407240CC8C33390
:10028F00C4540F4420C8834004F456800146F6DF5F
:10029F00E4800B0102040810204080900406E47EE5
:1002AF00019360BCA3FF543F30E509541FFEE49354
:1002BF00A360010ECF54C025E060A840B8E493A31B
:1002CF00FAE493A3F8E493A3C8C582C8CAC583CA46
:1002DF00F0A3C8C582C8CAC583CADFE9DEE780BEFE
:0104160000E5
:10001600BB010CE58229F582E5833AF583E022509F
:1000260006E92582F8E622BBFE06E92582F8E222E9
:0D003600E58229F582E5833AF583E4932203
:10004300C2D5EC30E709B2D5E4C39DFDE49CFCEED8
:1000530030E715B2D5E4C39FFFE49EFE120079C3D7
:10006300E49DFDE49CFC800312007930D507C3E4D2
:060073009FFFE49EFE2247
:1002EF00C2D5E830E70FB2D5E4C39BFBE49AFAE43A
:1002FF0099F9E498F8EC30E717B2D51203251201FB
:10030F000AE4C39BFBE49AFAE499F9E498F88003B2
:10031F0012010A30D50DE4C39FFFE49EFEE49DFD5C
:04032F00E49CFC222C
:10007900BC000BBE0029EF8DF084FFADF022E4CC6B
:10008900F875F008EF2FFFEE33FEEC33FCEE9DEC34
:10009900984005FCEE9DFE0FD5F0E9E4CEFD22ED7A
:1000A900F8F5F0EE8420D21CFEADF075F008EF2FC4
:1000B900FFED33FD4007985006D5F0F222C398FDB5
:0500C9000FD5F0EA2252
:1000CE0075F008758200EF2FFFEE33FECD33CDCCE9
:1000DE0033CCC58233C5829BED9AEC99E58298406C
:1000EE000CF582EE9BFEED9AFDEC99FC0FD5F0D649
:1000FE00E4CEFBE4CDFAE4CCF9A88222B800C1B973
:10010E000059BA002DEC8BF084CFCECDFCE5F0CBB0
:10011E00F97818EF2FFFEE33FEED33FDEC33FCEBE9
:10012E0033FB10D703994004EB99FB0FD8E5E4F9A4
:10013E00FA227818EF2FFFEE33FEED33FDEC33FC91
:10014E00C933C910D7059BE99A4007EC9BFCE99A85
:10015E00F90FD8E0E4C9FAE4CCFB2275F010EF2FCA
:10016E00FFEE33FEED33FDCC33CCC833C810D707CA
:10017E009BEC9AE899400AED9BFDEC9AFCE899F805
:0E018E000FD5F0DAE4CDFBE4CCFAE4C8F92298
:00000001FF
