:1005DA00012E000D210000000000000000000000B4
:0205EA0000000F
:10064D00C2A7C2A67F807E251205B012040B12022E
:0F065D00C01204D17B007A00792112062A80ECAA
:1005B000D2AF75985053890F438920AB07AA06E440
:1005C000F9F87F807E70FDFC12048DEFF404F58D48
:0A05D000858D8BC2ABD2ACD28E2217
:1004D100752153752259752359E5372430F524E5E3
:1004E100382430F525E5352430F526E5362430F578
:1004F10027E50D2430F528E50A2430F529E50B24FC
:1005010030F52AE50C2430F52BE50E2430F52C7559
:030511002D482250
:06062A008B3C8A3D893E75
:10063000E4FFAB3CAA3DA93E8F82758300120162A4
:0C064000600AF5990F3099FDC29980E620
:01064C00228B
:0805EC00023700000235000097
:1006A300D2907F141206EAC2907F147E0012066C69
:0706B300D2907F140206EA59
:10060300E4F546F5453090FD7F141206EAE54625EC
:10061300E0F54630900205462090FD0545E545C3CB
:06062300940840E1AF461F
:0106290022AE
:10040B007FE87E0312066C1206A32090743090FDD9
:10041B007F281206EA1206038F3C1206038F3D1249
:10042B0006038F3E1206038F3F1206038F447F1481
:10043B001206EAE53C253DFFE433FE7C00EF253E4A
:10044B00FFEC3EFEEF253FFFEC3EFEEFB54410EC1C
:10045B00B5060C853C40853D41853E42853F43E5D5
:10046B004075F00A84F535E54075F00A8485F03661
:10047B00E54275F00A84F537E54275F00A8485F09C
:01048B003838
:01048C00224D
:0E05F400041300000000020F000002110000BE
:10068A008F3C1206CF7F46120514AF3C1205141296
:09069A0006BA7F057E0002066C21
:0A06E0007F0112068A7F2002068ABD
:1002C0001206E07FB47E0012066C1206CF7F471242
:1002D000051412057D8F1112054A8F121206BA7F7E
:1002E000057E0012066C750F00851110E510FE7C6E
:1002F00000E42512F510EC3EF50FFCAD101200A83D
:100300007B9A7A997999783F1200068F168E158D0F
:10031000148C131200E18E088F097C277D101201C6
:100320008F8F0DAE08AF097C277D1012018F7E03E1
:100330007FE8CFCDCFCECCCE12018F8F0AAE08AFE3
:10034000097C037DE812018F7E007F64CFCDCFCE84
:10035000CCCE12018F8F0BAE08AF097C007D6412EA
:10036000018F7E007F0ACFCDCFCECCCE12018F8FF2
:0F0370000CAE08AF097C007D0A12018F8D0E22A2
:1006CF00D291D29200000000C29100000000C292AD
:0106DF0022F8
:1006BA00C292C29100000000D29200000000D291C2
:0506CA00000000002209
:100514007E80EE601B5F7004C2918002D291000065
:100524000000D29200000000C292EEC313FE80E2EB
:10053400D29100000000D292A2919200000000002B
:05054400C292A200B309
:01054900228F
:10054A00D2917E80EE601D00000000D292209105BB
:10055A00F452078003EE420700000000C292EEC385
:10056A0013FE80E0D29100000000D2920000000049
:02057A00C2922B
:01057C00225C
:10057D00D2917E80EE601D00000000D29220910588
:10058D00F452078003EE420700000000C292EEC352
:10059D0013FE80E0C29100000000D2920000000026
:0205AD00C292F8
:0105AF002229
:0306EA00DFFE220E
:10066C00D3EF9400EE940040147D6E7C00ED1D7071
:0D067C00011CED4C70F7EF1F70E61E80E3CF
:01068900224E
:0300000002037F79
:0C037F00787FE4F6D8FD7581460203C6C5
:10000300020157EC5D046005E85904700302014DD9
:10001300120118580460F6EC4860F2EC7004FDFE1F
:10002300FF22C860DB2481C85009C39860025006D0
:100033000201549850CAF582E9294B4A7005AB82F4
:1000430002014375F0007C1A7880C3EF9BEE9AEDB2
:1000530099400DC3EF9BFFEE9AFEED99FDE842F048
:10006300DC23ACF0D0E0FFD0E0FED0E0FDAB82209B
:10007300E7101BEB60BAEC2CFCEF33FFEE33FEED25
:1000830033FD02012FE803F830E705C0F075F000F7
:10009300EF2FFFEE33FEED33FD40B830E7C280AA09
:1000A30075F020800E75F010800575F0087D007ED8
:1000B300007F003392D530D5031201E4EC334010B6
:1000C300EF33FFEE33FEED33FDEC33FCD5F0ED22E1
:0E00D300E5F0247EA2D513CC92E7CDCEFF221D
:1000E100EDD2E7CD33EC3392D524814006E4FFFE17
:1000F100FDFC22FCE4CFCECDCC24E0501174FF8076
:10010100EDC3CC13CCCD13CDCE13CECF13CF047012
:07011100F030D5DE0201E42D
:10011800E9D2E7C933E833F892D5EDD2E7CD33EC2D
:0701280033FC5002B2D522A6
:10012F00EC30E7100FBF000C0EBE00080DBD000431
:10013F000BEB6014A2D5EB13FCED92E7FD2274FFDD
:10014F00FCFDFEFF22E480F8A2D574FF13FC7D8036
:03015F00E480EF4A
:10038B0002064DE493A3F8E493A34003F68001F235
:10039B0008DFF48029E493A3F85407240CC8C33373
:1003AB00C4540F4420C8834004F456800146F6DF42
:1003BB00E4800B01020408102040809005DAE47EF3
:1003CB00019360BCA3FF543F30E509541FFEE49337
:1003DB00A360010ECF54C025E060A840B8E493A3FE
:1003EB00FAE493A3F8E493A3C8C582C8CAC583CA29
:1003FB00F0A3C8C582C8CAC583CADFE9DEE780BEE1
:0106020000F7
:10016200BB010CE58229F582E5833AF583E0225052
:1001720006E92582F8E622BBFE06E92582F8E2229C
:0D018200E58229F582E5833AF583E49322B6
:10018F00BC000BBE0029EF8DF084FFADF022E4CC54
:10019F00F875F008EF2FFFEE33FEEC33FCEE9DEC1D
:1001AF00984005FCEE9DFE0FD5F0E9E4CEFD22ED63
:1001BF00F8F5F0EE8420D21CFEADF075F008EF2FAD
:1001CF00FFED33FD4007985006D5F0F222C398FD9E
:0501DF000FD5F0EA223B
:10048D00C2D5E830E70FB2D5E4C39BFBE49AFAE49A
:10049D0099F9E498F8EC30E717B2D51204C31202BB
:1004AD002EE4C39BFBE49AFAE499F9E498F88003EF
:1004BD0012022E30D50DE4C39FFFE49EFEE49DFD98
:0404CD00E49CFC228D
:0E01E400C3E49FFFE49EFEE49DFDE49CFC222C
:1001F20075F008758200EF2FFFEE33FECD33CDCCC4
:1002020033CCC58233C5829BED9AEC99E582984046
:100212000CF582EE9BFEED9AFDEC99FC0FD5F0D623
:10022200E4CEFBE4CDFAE4CCF9A88222B800C1B94D
:100232000059BA002DEC8BF084CFCECDFCE5F0CB8B
:10024200F97818EF2FFFEE33FEED33FDEC33FCEBC4
:1002520033FB10D703994004EB99FB0FD8E5E4F97F
:10026200FA227818EF2FFFEE33FEED33FDEC33FC6C
:10027200C933C910D7059BE99A4007EC9BFCE99A60
:10028200F90FD8E0E4C9FAE4CCFB2275F010EF2FA5
:10029200FFEE33FEED33FDCC33CCC833C810D707A5
:1002A2009BEC9AE899400AED9BFDEC9AFCE899F8E0
:0E02B2000FD5F0DAE4CDFBE4CCFAE4C8F92273
:00000001FF
