:1004BA0043757272656E743A00537572706C757317
:0204CA003A00F6
:100428000312FF04BA0315FF04C3060C0000000002
:100438000000C100C10201180002190000020800F2
:010448006350
:10044A007F807E251203891205101204A61201ADBF
:10045A001203B37B007A00790C1204051202D380CE
:01046A00ECA5
:0F0510005389F0438901758C4CE4F58AD2A922F6
:1002D300AB15AA16A917E4FD7F011203DDAE0AAF21
:1002E3000B7C007D0A120054EF2430FBE4FD7F09F0
:1002F300120003AE0AAF0B7C007D0A120054ED24FA
:1003030030FBE4FD7F0A120003AB12AA13A9147D8C
:10031300017F011203DDAE19AF1A7C007D0A1200C2
:1003230054EF2430FB7D017F09120003AE19AF1A8D
:100333007C007D0A120054ED2430FB7D017F0A020C
:020343000003B5
:0C051F00C2977F147E0012046BD297225A
:1001AD0020A13420A104D202D28C30022A30010BBE
:1001BD00C201C28CE4F518C202801C20A0EC30A054
:1001CD00FDE51A151A7002151912051FC201C28C10
:1001DD00E4F518C200C20220A02920A004D200D24A
:1001ED008C30001F300102801120A1F530A1FD05DA
:1001FD001AE51A7002051912051FC201C28CE4F529
:10020D0018C200D3E51A9400E51964809480500556
:10021D00E4F519F51AD3E51A9509E5086480F8E5B2
:10022D0019648098400685081985091AC3E5099552
:0A023D001AF50BE5089519F50A22E1
:10046B00D3EF9400EE940040147D6E7C00ED1D7074
:0D047B00011CED4C70F7EF1F70E61E80E3D2
:010488002251
:10038900D2AF75985053890F438920AB07AA06E469
:10039900F9F87F807E70FDFC120345EFF404F58DBA
:0A03A900858D8BC2ABD2ACD28E2240
:1003B300750C53750D59AE19AF1A7C007D0A1200E6
:1003C30054EF2430F50EAE19AF1A7C007D0A1200EB
:0A03D30054ED2430F50F7510482298
:060405008B1B8A1C891DFF
:10040B00E4FFAB1BAA1CA91D8F827583001200276A
:0C041B00600AF5990F3099FDC29980E647
:0104270022B2
:03000B0002048963
:10048900C0E0C0D0758C4C758A000518E518C39476
:0D049900644005751800D201D0D0D0E032CB
:1004CC007580FFC290D291D295AF80C295EF20E794
:0104DC00F629
:0104DD0022FC
:1004F000AE071204CCC290C2918E80D295C29522D2
:10050000AE071204CCD290C2918E80D295C29522B1
:1004DE00ED7004AC078004EF2440FCEC4480FF0276
:0204EE0004F018
:080003001204DEAF0302050048
:1003DD008B1B8A1C891D1204DEAB1BAA1CA91D12C6
:1003ED00000E6013051DE51D7002051C14F91200A9
:0803FD000EFF12050080E22250
:1004A6007F381204F07F0C1204F07F061204F07FEE
:0404B600010204F04B
:03000000020247B2
:0C024700787FE4F6D8FD75812002028E5D
:1002530002044AE493A3F8E493A34003F68001F273
:1002630008DFF48029E493A3F85407240CC8C333AC
:10027300C4540F4420C8834004F456800146F6DF7B
:10028300E4800B0102040810204080900428E47EDF
:10029300019360BCA3FF543F30E509541FFEE49370
:1002A300A360010ECF54C025E060A840B8E493A337
:1002B300FAE493A3F8E493A3C8C582C8CAC583CA62
:1002C300F0A3C8C582C8CAC583CADFE9DEE780BE1A
:0104490000B2
:10000E00BB010689828A83E0225002E722BBFE02F0
:09001E00E32289828A83E4932223
:10002700BB010CE58229F582E5833AF583E022508E
:1000370006E92582F8E622BBFE06E92582F8E222D8
:0D004700E58229F582E5833AF583E49322F2
:10005400C2D5EC30E709B2D5E4C39DFDE49CFCEEC7
:1000640030E715B2D5E4C39FFFE49EFE12008AC3B5
:10007400E49DFDE49CFC800312008A30D507C3E4B0
:060084009FFFE49EFE2236
:10034500C2D5E830E70FB2D5E4C39BFBE49AFAE4E3
:1003550099F9E498F8EC30E717B2D512037B12014E
:100365001BE4C39BFBE49AFAE499F9E498F880034B
:1003750012011B30D50DE4C39FFFE49EFEE49DFDF5
:04038500E49CFC22D6
:10008A00BC000BBE0029EF8DF084FFADF022E4CC5A
:10009A00F875F008EF2FFFEE33FEEC33FCEE9DEC23
:1000AA00984005FCEE9DFE0FD5F0E9E4CEFD22ED69
:1000BA00F8F5F0EE8420D21CFEADF075F008EF2FB3
:1000CA00FFED33FD4007985006D5F0F222C398FDA4
:0500DA000FD5F0EA2241
:1000DF0075F008758200EF2FFFEE33FECD33CDCCD8
:1000EF0033CCC58233C5829BED9AEC99E58298405B
:1000FF000CF582EE9BFEED9AFDEC99FC0FD5F0D638
:10010F00E4CEFBE4CDFAE4CCF9A88222B800C1B961
:10011F000059BA002DEC8BF084CFCECDFCE5F0CB9F
:10012F00F97818EF2FFFEE33FEED33FDEC33FCEBD8
:10013F0033FB10D703994004EB99FB0FD8E5E4F993
:10014F00FA227818EF2FFFEE33FEED33FDEC33FC80
:10015F00C933C910D7059BE99A4007EC9BFCE99A74
:10016F00F90FD8E0E4C9FAE4CCFB2275F010EF2FB9
:10017F00FFEE33FEED33FDCC33CCC833C810D707B9
:10018F009BEC9AE899400AED9BFDEC9AFCE899F8F4
:0E019F000FD5F0DAE4CDFBE4CCFAE4C8F92287
:00000001FF
