:1003430057656C636F6D65205553452100535953B1
:1003530054454D2052756E6E696E67210054653A9F
:1003630020300068753A20300053595354454D20CE
:0903730052756E6E696E6721007F
:10042A00C181C102C100080B0000000000000000E9
:0D043A0001130001140002080000010A0077
:10010D00E4F5157F1078007420F208DFFCE4FFEFB2
:10011D0090036C93FE74102FF8EEF20FBF0FF07F6B
:10012D0011781F7420F208DFFC7F30C2A7C2A675BC
:10013D00B810D2AF12000E12023F7F807E2512033F
:10014D007C12049F30001FC20074002515F9E4FADB
:10015D007BFE751B10FDFF1203EA0515E515C39413
:10016D001F4003E4F5153001DBC201E50BB453D498
:10017D00E50CB459CFE50DB459CAE512B448C51212
:10018D0003A4E50E24D075F00AA4FFE50F24D02FAB
:10019D00F514C3941440ADE4F514C2937FC8FE1258
:0601AD00040CD293809EB9
:10037C0075985053890F438920AB07AA06E4F9F806
:10038C007F807E70FDFC1202FFEFF404F58D858DED
:08039C008BC2ABD2ACD28E2261
:10049F005389F0438901758CDCE4F58AD2A9D28C9B
:0104AF00222A
:10023F007BFF7A037943E4FD7F021203C87BFF7AC9
:10024F000379507D017F011203C87FDC7E05120404
:10025F000C1204C07BFF7A0379607D01E4FF120367
:10026F00C87BDF7D017F051200037B437D017F0685
:10027F001200037BFF7A0379667D017F081203C8A2
:10028F007B257D017F0D1200037B527D017F0E12B6
:0B029F0000037B487D017F0F0200037D
:1003A400AB0E7D017F03120003AB0F7D017F0412AE
:1003B4000003AB107D017F0B120003AB117D017FA5
:0403C4000C02000324
:10040C00D3EF9400EE940040147D6E7C00ED1D70D3
:0D041C00011CED4C70F7EF1F70E61E80E331
:0104290022B0
:030023000202AA2C
:0902AA00C0E0C0D075D000C00016
:1002B300309842C298859913E513B45311E5094563
:1002C30008700B740B2509F8A613D202802730029D
:1002D300240509E50970020508240BF8A613C3E5F4
:1002E300099407E50864809480400A75080075093D
:0502F30000C202D2016F
:0702F800D000D0D0D0E032AD
:03000B00020448A4
:04044800C0E0C0D080
:10044C00758CDC758A00050AE50AC3945040057565
:04045C000A00D200C0
:05046000D0D0D0E03215
:10047B007580FFC290D291D295AF80C295EF20E7E5
:01048B00F67A
:01048C00224D
:1004B000AE0712047BC290C2918E80D295C2952263
:0604650014F9120026FF4D
:10046B00AE0712047BD290C2918E80D295C2952298
:10048D00ED7004AC078004EF2440FCEC4480FF02C7
:02049D0004B0A9
:0800030012048DAF0302046B2F
:1003C8008B168A17891812048DAB16AA17A918124A
:1003D8000026600D0518E5187002051712046580DF
:0203E800E82209
:1003EA008B188A19891A12048DAF1B151BEF60111D
:1003FA00AB18051AE51AAA197002051912046580C4
:02040A00E822E6
:0504C0007F010204B001
:10000E007F381204B07F0C1204B07F061204B07F4A
:04001E00010204B027
:030000000201B347
:0C01B300787FE4F6D8FD7581200201FA87
:1001BF0002010DE493A3F8E493A34003F68001F248
:1001CF0008DFF48029E493A3F85407240CC8C33341
:1001DF00C4540F4420C8834004F456800146F6DF10
:1001EF00E4800B010204081020408090042AE47E72
:1001FF00019360BCA3FF543F30E509541FFEE49305
:10020F00A360010ECF54C025E060A840B8E493A3CB
:10021F00FAE493A3F8E493A3C8C582C8CAC583CAF6
:10022F00F0A3C8C582C8CAC583CADFE9DEE780BEAE
:0104470000B4
:10002600BB010689828A83E0225002E722BBFE02D8
:09003600E32289828A83E493220B
:1002FF00C2D5E830E70FB2D5E4C39BFBE49AFAE42A
:10030F0099F9E498F8EC30E717B2D51203351200DB
:10031F007BE4C39BFBE49AFAE499F9E498F8800331
:10032F0012007B30D50DE4C39FFFE49EFEE49DFDDC
:04033F00E49CFC221C
:10003F0075F008758200EF2FFFEE33FECD33CDCC78
:10004F0033CCC58233C5829BED9AEC99E5829840FB
:10005F000CF582EE9BFEED9AFDEC99FC0FD5F0D6D8
:10006F00E4CEFBE4CDFAE4CCF9A88222B800C1B902
:10007F000059BA002DEC8BF084CFCECDFCE5F0CB40
:10008F00F97818EF2FFFEE33FEED33FDEC33FCEB79
:10009F0033FB10D703994004EB99FB0FD8E5E4F934
:1000AF00FA227818EF2FFFEE33FEED33FDEC33FC21
:1000BF00C933C910D7059BE99A4007EC9BFCE99A15
:1000CF00F90FD8E0E4C9FAE4CCFB2275F010EF2F5A
:1000DF00FFEE33FEED33FDCC33CCC833C810D7075A
:1000EF009BEC9AE899400AED9BFDEC9AFCE899F895
:0E00FF000FD5F0DAE4CDFBE4CCFAE4C8F92228
:00000001FF
